<!DOCTYPE html>
<html lang="en"><head>
<meta charset="utf-8" />
<meta http-equiv="X-UA-Compatible" content="IE=edge" />
<meta name="viewport" content="width=device-width, initial-scale=1" />
<title>EIP-155: Simple replay attack protection</title>
<meta property="og:title" content="EIP-155: Simple replay attack protection" />
<meta name="description" content="" />
<meta property="og:description" content="" />
<meta name="twitter:description" content="" />
<meta name="generator" content="Jekyll" />
<meta property="og:locale" content="en_US" />
<link rel="canonical" href="https://eips.ethereum.org/EIPS/eip-155" />
<meta property="og:url" content="https://eips.ethereum.org/EIPS/eip-155" />
<meta property="og:site_name" content="Ethereum Improvement Proposals" />
<meta name="twitter:card" content="summary" />
<meta name="twitter:site" content="@" />
<script type="application/ld+json">
    {
      "@type": "WebSite",
      "url": "https://eips.ethereum.org",
      "name": "Ethereum Improvement Proposals",
      "description": "Ethereum Improvement Proposals (EIPs) describe standards for the Ethereum platform, including core protocol specifications, client APIs, and contract standards.",
      "@context": "https://schema.org"
    }
  </script>
<link rel="stylesheet" href="/assets/css/style.css" /><link type="application/atom+xml" rel="alternate" href="https://eips.ethereum.org/feed.xml" title="Ethereum Improvement Proposals" /><script async src="https://cdnjs.cloudflare.com/ajax/libs/mathjax/2.7.6/MathJax.js?config=TeX-AMS-MML_HTMLorMML" integrity="sha256-nlrDrBTHxJJlDDX22AS33xYI1OJHnGMDhiYMSe2U0e0=" crossorigin="anonymous"></script>
</head>
<body><header class="site-header" role="banner">
<div class="wrapper"><a class="site-title" rel="author" href="/">Ethereum Improvement Proposals</a><nav class="site-nav">
<input type="checkbox" id="nav-trigger" class="nav-trigger" />
<label for="nav-trigger">
<span class="menu-icon">
<svg viewBox="0 0 18 15" width="18px" height="15px">
<path d="M18,1.484c0,0.82-0.665,1.484-1.484,1.484H1.484C0.665,2.969,0,2.304,0,1.484l0,0C0,0.665,0.665,0,1.484,0 h15.032C17.335,0,18,0.665,18,1.484L18,1.484z M18,7.516C18,8.335,17.335,9,16.516,9H1.484C0.665,9,0,8.335,0,7.516l0,0 c0-0.82,0.665-1.484,1.484-1.484h15.032C17.335,6.031,18,6.696,18,7.516L18,7.516z M18,13.516C18,14.335,17.335,15,16.516,15H1.484 C0.665,15,0,14.335,0,13.516l0,0c0-0.82,0.665-1.483,1.484-1.483h15.032C17.335,12.031,18,12.695,18,13.516L18,13.516z" />
</svg>
</span>
</label>
<div class="trigger"><a class="page-link" href="/all">All</a><a class="page-link" href="/core">Core</a><a class="page-link" href="/networking">Networking</a><a class="page-link" href="/interface">Interface</a><a class="page-link" href="/erc">ERC</a><a class="page-link" href="/meta">Meta</a><a class="page-link" href="/informational">Informational</a></div>
</nav></div>
</header>
<main class="page-content" aria-label="Content">
<div class="wrapper">
<div class="home">
<h1 class="page-heading">
EIP-155: Simple replay attack protection
<a href="https://github.com/ethereum/EIPs/blob/master/EIPS/eip-155.md"><svg role="img" aria-label="Source" xmlns="https://www.w3.org/2000/svg" width="14" height="16" viewBox="0 0 14 16"><title>Source</title><path fill-rule="evenodd" d="M9.5 3L8 4.5 11.5 8 8 11.5 9.5 13 14 8 9.5 3zm-5 0L0 8l4.5 5L6 11.5 2.5 8 6 4.5 4.5 3z" /></svg></a>
</h1>
<h3></h3>
<table>
<tr><th>Author</th><td><a href="https://github.com/vbuterin">Vitalik Buterin</a></td></tr>
<tr><th>Status</th><td>Final
</td></tr>
<tr><th>Type</th><td>Standards Track</td></tr>
<tr><th>Category</th><td>Core</td></tr>
<tr><th>Created</th><td>2016-10-14</td></tr>
</table>
<div class="toc">
<h2>Table of Contents</h2>
<ul>
<li><a href="#hard-fork">Hard fork</a></li>
<li><a href="#parameters">Parameters</a></li>
<li><a href="#specification">Specification</a></li>
<li><a href="#example">Example</a></li>
<li><a href="#rationale">Rationale</a></li>
<li><a href="#list-of-chain-ids">List of Chain ID’s:</a></li>
</ul>
</div>
<h3 id="hard-fork">
<a href="#hard-fork" class="anchor-link"></a> Hard fork
</h3>
<p><a href="/EIPS/eip-607">Spurious Dragon</a></p>
<h3 id="parameters">
<a href="#parameters" class="anchor-link"></a> Parameters
</h3>
<ul>
<li><code class="language-plaintext highlighter-rouge">FORK_BLKNUM</code>: 2,675,000</li>
<li><code class="language-plaintext highlighter-rouge">CHAIN_ID</code>: 1 (main net)</li>
</ul>
<h3 id="specification">
<a href="#specification" class="anchor-link"></a> Specification
</h3>
<p>If <code class="language-plaintext highlighter-rouge">block.number &gt;= FORK_BLKNUM</code> and <code class="language-plaintext highlighter-rouge">CHAIN_ID</code> is available, then when computing the hash of a transaction for the purposes of signing, instead of hashing only six rlp encoded elements <code class="language-plaintext highlighter-rouge">(nonce, gasprice, startgas, to, value, data)</code>, you <strong>SHOULD</strong> hash nine rlp encoded elements <code class="language-plaintext highlighter-rouge">(nonce, gasprice, startgas, to, value, data, chainid, 0, 0)</code>. If you do, then the <code class="language-plaintext highlighter-rouge">v</code> of the signature <strong>MUST</strong> be set to <code class="language-plaintext highlighter-rouge">{0,1} + CHAIN_ID * 2 + 35</code> where <code class="language-plaintext highlighter-rouge">{0,1}</code> is the parity of the <code class="language-plaintext highlighter-rouge">y</code> value of the curve point for which <code class="language-plaintext highlighter-rouge">r</code> is the x-value in the secp256k1 signing process. If you choose to only hash 6 values, then <code class="language-plaintext highlighter-rouge">v</code> continues to be set to <code class="language-plaintext highlighter-rouge">{0,1} + 27</code> as previously.</p>
<p>If <code class="language-plaintext highlighter-rouge">block.number &gt;= FORK_BLKNUM</code> and <code class="language-plaintext highlighter-rouge">v = CHAIN_ID * 2 + 35</code> or <code class="language-plaintext highlighter-rouge">v = CHAIN_ID * 2 + 36</code>, then when computing the hash of a transaction for purposes of recovering, instead of hashing six rlp encoded elements <code class="language-plaintext highlighter-rouge">(nonce, gasprice, startgas, to, value, data)</code>, hash nine rlp encoded elements <code class="language-plaintext highlighter-rouge">(nonce, gasprice, startgas, to, value, data, chainid, 0, 0)</code>. The currently existing signature scheme using <code class="language-plaintext highlighter-rouge">v = 27</code> and <code class="language-plaintext highlighter-rouge">v = 28</code> remains valid and continues to operate under the same rules as it did previously.</p>
<h3 id="example">
<a href="#example" class="anchor-link"></a> Example
</h3>
<p>Consider a transaction with <code class="language-plaintext highlighter-rouge">nonce = 9</code>, <code class="language-plaintext highlighter-rouge">gasprice = 20 * 10**9</code>, <code class="language-plaintext highlighter-rouge">startgas = 21000</code>, <code class="language-plaintext highlighter-rouge">to = 0x3535353535353535353535353535353535353535</code>, <code class="language-plaintext highlighter-rouge">value = 10**18</code>, <code class="language-plaintext highlighter-rouge">data=''</code> (empty).</p>
<p>The “signing data” becomes:</p>
<div class="language-plaintext highlighter-rouge"><div class="highlight"><pre class="highlight"><code>0xec098504a817c800825208943535353535353535353535353535353535353535880de0b6b3a764000080018080
</code></pre></div></div>
<p>The “signing hash” becomes:</p>
<div class="language-plaintext highlighter-rouge"><div class="highlight"><pre class="highlight"><code>0xdaf5a779ae972f972197303d7b574746c7ef83eadac0f2791ad23db92e4c8e53
</code></pre></div></div>
<p>If the transaction is signed with the private key <code class="language-plaintext highlighter-rouge">0x4646464646464646464646464646464646464646464646464646464646464646</code>, then the v,r,s values become:</p>
<div class="language-plaintext highlighter-rouge"><div class="highlight"><pre class="highlight"><code>(37, 18515461264373351373200002665853028612451056578545711640558177340181847433846, 46948507304638947509940763649030358759909902576025900602547168820602576006531)
</code></pre></div></div>
<p>Notice the use of 37 instead of 27. The signed tx would become:</p>
<div class="language-plaintext highlighter-rouge"><div class="highlight"><pre class="highlight"><code>0xf86c098504a817c800825208943535353535353535353535353535353535353535880de0b6b3a76400008025a028ef61340bd939bc2195fe537567866003e1a15d3c71ff63e1590620aa636276a067cbe9d8997f761aecb703304b3800ccf555c9f3dc64214b297fb1966a3b6d83
</code></pre></div></div>
<h3 id="rationale">
<a href="#rationale" class="anchor-link"></a> Rationale
</h3>
<p>This would provide a way to send transactions that work on Ethereum without working on ETC or the Morden testnet. ETC is encouraged to adopt this EIP but replacing <code class="language-plaintext highlighter-rouge">CHAIN_ID</code> with a different value, and all future testnets, consortium chains and alt-etherea are encouraged to adopt this EIP replacing <code class="language-plaintext highlighter-rouge">CHAIN_ID</code> with a unique value.</p>
<h3 id="list-of-chain-ids">
<a href="#list-of-chain-ids" class="anchor-link"></a> List of Chain ID’s:
</h3>
<table>
<thead>
<tr>
<th><code class="language-plaintext highlighter-rouge">CHAIN_ID</code></th>
<th>Chain(s)</th>
</tr>
</thead>
<tbody>
<tr>
<td>1</td>
<td>Ethereum mainnet</td>
</tr>
<tr>
<td>2</td>
<td>Morden (disused), Expanse mainnet</td>
</tr>
<tr>
<td>3</td>
<td>Ropsten</td>
</tr>
<tr>
<td>4</td>
<td>Rinkeby</td>
</tr>
<tr>
<td>5</td>
<td>Goerli</td>
</tr>
<tr>
<td>42</td>
<td>Kovan</td>
</tr>
<tr>
<td>1337</td>
<td>Geth private chains (default)</td>
</tr>
</tbody>
</table>
<p>Find more chain ID’s on <a href="https://chainid.network">chainid.network</a> and contribute to <a href="https://github.com/ethereum-lists/chains">ethereum-lists/chains</a>.</p>
<h2>Citation</h2>
<p>Please cite this document as:</p>
<p><a href="https://github.com/vbuterin">Vitalik Buterin</a>, "EIP-155: Simple replay attack protection," <em>Ethereum Improvement Proposals</em>, no. 155, October 2016. [Online serial]. Available: https://eips.ethereum.org/EIPS/eip-155.</p>
</div>
<script type="application/ld+json">
  {
    "@context": "http://schema.org",
    "@type": "TechArticle",
    "headline": "EIP-155: Simple replay attack protection",
    "author": "Vitalik Buterin (@vbuterin)",
    "name": "EIP-155: Simple replay attack protection",
    "dateCreated": "2016-10-14",
    "datePublished": "2016-10-14",
    
    "inLanguage": "en-US",
    "license": "#copyright",
    "copyrightYear": "2016"
  }
</script>
</div>
</main><footer class="site-footer h-card">
<data class="u-url" href="/"></data>
<div class="wrapper">
<h2 class="footer-heading">Ethereum Improvement Proposals</h2>
<div class="footer-col-wrapper">
<div class="footer-col footer-col-1">
<ul class="contact-list">
<li class="p-name">Ethereum Improvement Proposals</li></ul>
</div>
<div class="footer-col footer-col-2"><ul class="social-media-list"><li><a href="https://github.com/ethereum/EIPs"><svg class="svg-icon"><use xlink:href="/assets/minima-social-icons.svg#github"></use></svg> <span class="username">ethereum/EIPs</span></a></li></ul>
</div>
<div class="footer-col footer-col-3">
<p>Ethereum Improvement Proposals (EIPs) describe standards for the Ethereum platform, including core protocol specifications, client APIs, and contract standards.</p>
</div>
</div>
</div>
</footer>
</body>
</html>
